{
  "_format": "hh-sol-artifact-1",
  "contractName": "Aggregator",
  "sourceName": "contracts/Aggregator.sol",
  "abi": [
    {
      "inputs": [],
      "stateMutability": "nonpayable",
      "type": "constructor"
    },
    {
      "anonymous": false,
      "inputs": [
        {
          "indexed": false,
          "internalType": "address",
          "name": "owner",
          "type": "address"
        },
        {
          "indexed": false,
          "internalType": "uint256",
          "name": "amount",
          "type": "uint256"
        },
        {
          "indexed": false,
          "internalType": "address",
          "name": "depositTo",
          "type": "address"
        }
      ],
      "name": "Deposit",
      "type": "event"
    },
    {
      "anonymous": false,
      "inputs": [
        {
          "indexed": true,
          "internalType": "address",
          "name": "previousOwner",
          "type": "address"
        },
        {
          "indexed": true,
          "internalType": "address",
          "name": "newOwner",
          "type": "address"
        }
      ],
      "name": "OwnershipTransferred",
      "type": "event"
    },
    {
      "anonymous": false,
      "inputs": [
        {
          "indexed": false,
          "internalType": "address",
          "name": "owner",
          "type": "address"
        },
        {
          "indexed": false,
          "internalType": "uint256",
          "name": "amount",
          "type": "uint256"
        },
        {
          "indexed": false,
          "internalType": "address",
          "name": "depositTo",
          "type": "address"
        }
      ],
      "name": "Rebalance",
      "type": "event"
    },
    {
      "anonymous": false,
      "inputs": [
        {
          "indexed": false,
          "internalType": "address",
          "name": "owner",
          "type": "address"
        },
        {
          "indexed": false,
          "internalType": "uint256",
          "name": "amount",
          "type": "uint256"
        },
        {
          "indexed": false,
          "internalType": "address",
          "name": "withdrawFrom",
          "type": "address"
        }
      ],
      "name": "Withdraw",
      "type": "event"
    },
    {
      "inputs": [],
      "name": "AaaveWETH_Address",
      "outputs": [
        {
          "internalType": "address",
          "name": "",
          "type": "address"
        }
      ],
      "stateMutability": "view",
      "type": "function"
    },
    {
      "inputs": [],
      "name": "AaveV3PoolAddressProvider",
      "outputs": [
        {
          "internalType": "address",
          "name": "",
          "type": "address"
        }
      ],
      "stateMutability": "view",
      "type": "function"
    },
    {
      "inputs": [],
      "name": "CompoundV3ProxyAddress",
      "outputs": [
        {
          "internalType": "address",
          "name": "",
          "type": "address"
        }
      ],
      "stateMutability": "view",
      "type": "function"
    },
    {
      "inputs": [],
      "name": "WETH_Address",
      "outputs": [
        {
          "internalType": "address",
          "name": "",
          "type": "address"
        }
      ],
      "stateMutability": "view",
      "type": "function"
    },
    {
      "inputs": [
        {
          "internalType": "uint256",
          "name": "_amount",
          "type": "uint256"
        },
        {
          "internalType": "uint256",
          "name": "_compAPY",
          "type": "uint256"
        },
        {
          "internalType": "uint256",
          "name": "_aaveAPY",
          "type": "uint256"
        }
      ],
      "name": "deposit",
      "outputs": [],
      "stateMutability": "nonpayable",
      "type": "function"
    },
    {
      "inputs": [],
      "name": "depositAmount",
      "outputs": [
        {
          "internalType": "uint256",
          "name": "",
          "type": "uint256"
        }
      ],
      "stateMutability": "view",
      "type": "function"
    },
    {
      "inputs": [],
      "name": "depositBalance",
      "outputs": [
        {
          "internalType": "uint256",
          "name": "",
          "type": "uint256"
        }
      ],
      "stateMutability": "view",
      "type": "function"
    },
    {
      "inputs": [],
      "name": "locationOfFunds",
      "outputs": [
        {
          "internalType": "address",
          "name": "",
          "type": "address"
        }
      ],
      "stateMutability": "view",
      "type": "function"
    },
    {
      "inputs": [],
      "name": "owner",
      "outputs": [
        {
          "internalType": "address",
          "name": "",
          "type": "address"
        }
      ],
      "stateMutability": "view",
      "type": "function"
    },
    {
      "inputs": [
        {
          "internalType": "uint256",
          "name": "_compAPY",
          "type": "uint256"
        },
        {
          "internalType": "uint256",
          "name": "_aaveAPY",
          "type": "uint256"
        }
      ],
      "name": "rebalance",
      "outputs": [],
      "stateMutability": "nonpayable",
      "type": "function"
    },
    {
      "inputs": [],
      "name": "renounceOwnership",
      "outputs": [],
      "stateMutability": "nonpayable",
      "type": "function"
    },
    {
      "inputs": [
        {
          "internalType": "address",
          "name": "newOwner",
          "type": "address"
        }
      ],
      "name": "transferOwnership",
      "outputs": [],
      "stateMutability": "nonpayable",
      "type": "function"
    },
    {
      "inputs": [],
      "name": "whereBalance",
      "outputs": [
        {
          "internalType": "address",
          "name": "",
          "type": "address"
        }
      ],
      "stateMutability": "view",
      "type": "function"
    },
    {
      "inputs": [],
      "name": "withdraw",
      "outputs": [
        {
          "internalType": "uint256",
          "name": "",
          "type": "uint256"
        }
      ],
      "stateMutability": "nonpayable",
      "type": "function"
    }
  ],
  "bytecode": "0x610160604052732f39d218133afab8f2b819b1066c7e434ad94e9e73ffffffffffffffffffffffffffffffffffffffff1660809073ffffffffffffffffffffffffffffffffffffffff1681525073c02aaa39b223fe8d0a0e5c4f27ead9083c756cc273ffffffffffffffffffffffffffffffffffffffff1660a09073ffffffffffffffffffffffffffffffffffffffff1681525073a17581a9e3356d9a858b789d68b4d866e593ae9473ffffffffffffffffffffffffffffffffffffffff1660c09073ffffffffffffffffffffffffffffffffffffffff16815250734d5f47fa6a74757f35c14fd3a6ef8e3c9bc514e873ffffffffffffffffffffffffffffffffffffffff1660e09073ffffffffffffffffffffffffffffffffffffffff1681525034801561012d57600080fd5b5061014a61013f6101f460201b60201c565b6101fc60201b60201c565b60a05173ffffffffffffffffffffffffffffffffffffffff166101008173ffffffffffffffffffffffffffffffffffffffff168152505060e05173ffffffffffffffffffffffffffffffffffffffff166101208173ffffffffffffffffffffffffffffffffffffffff168152505060c05173ffffffffffffffffffffffffffffffffffffffff166101408173ffffffffffffffffffffffffffffffffffffffff16815250506102c0565b600033905090565b60008060009054906101000a900473ffffffffffffffffffffffffffffffffffffffff169050816000806101000a81548173ffffffffffffffffffffffffffffffffffffffff021916908373ffffffffffffffffffffffffffffffffffffffff1602179055508173ffffffffffffffffffffffffffffffffffffffff168173ffffffffffffffffffffffffffffffffffffffff167f8be0079c531659141344cd1fd0a4f28419497f9722a3daafe3b4186f6b6457e060405160405180910390a35050565b60805160a05160c05160e051610100516101205161014051611afa610398600039600081816104450152818161084a015281816108d701528181610bdd01528181610c6001528181610d0d01528181610f960152610ff3015260006111c50152600081816102a5015281816104c4015281816105b301528181610ba101528181610c9c01528181610db901528181610eb801528181610fd2015281816110dc015281816112e4015261138901526000610708015260006104060152600061072c0152600081816107bd01526114ef0152611afa6000f3fe608060405234801561001057600080fd5b50600436106100e95760003560e01c806361bc1a491161008c578063b035acb211610066578063b035acb214610204578063bca348cf14610222578063df8879b814610240578063f2fde38b1461025c576100e9565b806361bc1a49146101be578063715018a6146101dc5780638da5cb5b146101e6576100e9565b80633ccfd60b116100c85780633ccfd60b14610146578063419759f51461016457806349752763146101825780635c83ed38146101a0576100e9565b8062aeef8a146100ee578063120013b21461010a57806327b0cc3214610128575b600080fd5b610108600480360381019061010391906115c8565b610278565b005b6101126103da565b60405161011f919061165c565b60405180910390f35b610130610404565b60405161013d919061165c565b60405180910390f35b61014e610428565b60405161015b9190611686565b60405180910390f35b61016c610700565b6040516101799190611686565b60405180910390f35b61018a610706565b604051610197919061165c565b60405180910390f35b6101a861072a565b6040516101b5919061165c565b60405180910390f35b6101c661074e565b6040516101d39190611686565b60405180910390f35b6101e4610758565b005b6101ee61076c565b6040516101fb919061165c565b60405180910390f35b61020c610795565b604051610219919061165c565b60405180910390f35b61022a6107bb565b604051610237919061165c565b60405180910390f35b61025a600480360381019061025591906116a1565b6107df565b005b6102766004803603810190610271919061170d565b610a9e565b005b610280610b21565b6000831161028d57600080fd5b600060025411156102a3576102a282826107df565b5b7f000000000000000000000000000000000000000000000000000000000000000073ffffffffffffffffffffffffffffffffffffffff166323b872dd3330866040518463ffffffff1660e01b81526004016103009392919061173a565b6020604051808303816000875af115801561031f573d6000803e3d6000fd5b505050506040513d601f19601f8201168201806040525081019061034391906117a9565b50826002546103529190611805565b6002819055508082111561036e5761036983610b9f565b610378565b61037783610d6f565b5b7fe31c7b8d08ee7db0afa68782e1028ef92305caeea8626633ad44d413e30f6b2f3384600160009054906101000a900473ffffffffffffffffffffffffffffffffffffffff166040516103cd93929190611839565b60405180910390a1505050565b6000600160009054906101000a900473ffffffffffffffffffffffffffffffffffffffff16905090565b7f000000000000000000000000000000000000000000000000000000000000000081565b6000610432610b21565b60006002541161044157600080fd5b60007f000000000000000000000000000000000000000000000000000000000000000073ffffffffffffffffffffffffffffffffffffffff16600160009054906101000a900473ffffffffffffffffffffffffffffffffffffffff1673ffffffffffffffffffffffffffffffffffffffff16036105a7576104c0610f92565b90507f000000000000000000000000000000000000000000000000000000000000000073ffffffffffffffffffffffffffffffffffffffff1663a9059cbb33836040518363ffffffff1660e01b815260040161051d929190611870565b6020604051808303816000875af115801561053c573d6000803e3d6000fd5b505050506040513d601f19601f8201168201806040525081019061056091906117a9565b5033600160006101000a81548173ffffffffffffffffffffffffffffffffffffffff021916908373ffffffffffffffffffffffffffffffffffffffff160217905550610692565b6105af611179565b90507f000000000000000000000000000000000000000000000000000000000000000073ffffffffffffffffffffffffffffffffffffffff1663a9059cbb33836040518363ffffffff1660e01b815260040161060c929190611870565b6020604051808303816000875af115801561062b573d6000803e3d6000fd5b505050506040513d601f19601f8201168201806040525081019061064f91906117a9565b5033600160006101000a81548173ffffffffffffffffffffffffffffffffffffffff021916908373ffffffffffffffffffffffffffffffffffffffff1602179055505b7f56c54ba9bd38d8fd62012e42c7ee564519b09763c426d331b3661b537ead19b233600254600160009054906101000a900473ffffffffffffffffffffffffffffffffffffffff166040516106e993929190611839565b60405180910390a160006002819055508091505090565b60025481565b7f000000000000000000000000000000000000000000000000000000000000000081565b7f000000000000000000000000000000000000000000000000000000000000000081565b6000600254905090565b610760610b21565b61076a6000611426565b565b60008060009054906101000a900473ffffffffffffffffffffffffffffffffffffffff16905090565b600160009054906101000a900473ffffffffffffffffffffffffffffffffffffffff1681565b7f000000000000000000000000000000000000000000000000000000000000000081565b6107e7610b21565b6000600254116107f657600080fd5b6107fe6114ea565b600360006101000a81548173ffffffffffffffffffffffffffffffffffffffff021916908373ffffffffffffffffffffffffffffffffffffffff16021790555080821180156108bb57507f000000000000000000000000000000000000000000000000000000000000000073ffffffffffffffffffffffffffffffffffffffff16600160009054906101000a900473ffffffffffffffffffffffffffffffffffffffff1673ffffffffffffffffffffffffffffffffffffffff1614155b1561093c5760006108ca611179565b90506108d581610b9f565b7f0000000000000000000000000000000000000000000000000000000000000000600160006101000a81548173ffffffffffffffffffffffffffffffffffffffff021916908373ffffffffffffffffffffffffffffffffffffffff16021790555050610a3b565b81811180156109bb5750600360009054906101000a900473ffffffffffffffffffffffffffffffffffffffff1673ffffffffffffffffffffffffffffffffffffffff16600160009054906101000a900473ffffffffffffffffffffffffffffffffffffffff1673ffffffffffffffffffffffffffffffffffffffff1614155b15610a3a5760006109ca610f92565b90506109d581610d6f565b600360009054906101000a900473ffffffffffffffffffffffffffffffffffffffff16600160006101000a81548173ffffffffffffffffffffffffffffffffffffffff021916908373ffffffffffffffffffffffffffffffffffffffff160217905550505b5b7fbe7cdf13e1084b20fe6aadbf0625144b7a36881e5578f3222aab900d72d904c133600254600160009054906101000a900473ffffffffffffffffffffffffffffffffffffffff16604051610a9293929190611839565b60405180910390a15050565b610aa6610b21565b600073ffffffffffffffffffffffffffffffffffffffff168173ffffffffffffffffffffffffffffffffffffffff1603610b15576040517f08c379a0000000000000000000000000000000000000000000000000000000008152600401610b0c9061191c565b60405180910390fd5b610b1e81611426565b50565b610b29611585565b73ffffffffffffffffffffffffffffffffffffffff16610b4761076c565b73ffffffffffffffffffffffffffffffffffffffff1614610b9d576040517f08c379a0000000000000000000000000000000000000000000000000000000008152600401610b9490611988565b60405180910390fd5b565b7f000000000000000000000000000000000000000000000000000000000000000073ffffffffffffffffffffffffffffffffffffffff1663095ea7b37f0000000000000000000000000000000000000000000000000000000000000000836040518363ffffffff1660e01b8152600401610c1a929190611870565b6020604051808303816000875af1158015610c39573d6000803e3d6000fd5b505050506040513d601f19601f82011682018060405250810190610c5d91906117a9565b507f000000000000000000000000000000000000000000000000000000000000000073ffffffffffffffffffffffffffffffffffffffff1663f2b9fdb87f0000000000000000000000000000000000000000000000000000000000000000836040518363ffffffff1660e01b8152600401610cd9929190611870565b600060405180830381600087803b158015610cf357600080fd5b505af1158015610d07573d6000803e3d6000fd5b505050507f0000000000000000000000000000000000000000000000000000000000000000600160006101000a81548173ffffffffffffffffffffffffffffffffffffffff021916908373ffffffffffffffffffffffffffffffffffffffff16021790555050565b610d776114ea565b600360006101000a81548173ffffffffffffffffffffffffffffffffffffffff021916908373ffffffffffffffffffffffffffffffffffffffff1602179055507f000000000000000000000000000000000000000000000000000000000000000073ffffffffffffffffffffffffffffffffffffffff1663095ea7b3600360009054906101000a900473ffffffffffffffffffffffffffffffffffffffff16836040518363ffffffff1660e01b8152600401610e34929190611870565b6020604051808303816000875af1158015610e53573d6000803e3d6000fd5b505050506040513d601f19601f82011682018060405250810190610e7791906117a9565b50600360009054906101000a900473ffffffffffffffffffffffffffffffffffffffff1673ffffffffffffffffffffffffffffffffffffffff1663617ba0377f0000000000000000000000000000000000000000000000000000000000000000833060006040518563ffffffff1660e01b8152600401610efa94939291906119fb565b600060405180830381600087803b158015610f1457600080fd5b505af1158015610f28573d6000803e3d6000fd5b50505050600360009054906101000a900473ffffffffffffffffffffffffffffffffffffffff16600160006101000a81548173ffffffffffffffffffffffffffffffffffffffff021916908373ffffffffffffffffffffffffffffffffffffffff16021790555050565b60007f000000000000000000000000000000000000000000000000000000000000000073ffffffffffffffffffffffffffffffffffffffff1663f3fef3a37f00000000000000000000000000000000000000000000000000000000000000007f000000000000000000000000000000000000000000000000000000000000000073ffffffffffffffffffffffffffffffffffffffff166370a08231306040518263ffffffff1660e01b815260040161104a919061165c565b602060405180830381865afa158015611067573d6000803e3d6000fd5b505050506040513d601f19601f8201168201806040525081019061108b9190611a55565b6040518363ffffffff1660e01b81526004016110a8929190611870565b600060405180830381600087803b1580156110c257600080fd5b505af11580156110d6573d6000803e3d6000fd5b505050507f000000000000000000000000000000000000000000000000000000000000000073ffffffffffffffffffffffffffffffffffffffff166370a08231306040518263ffffffff1660e01b8152600401611133919061165c565b602060405180830381865afa158015611150573d6000803e3d6000fd5b505050506040513d601f19601f820116820180604052508101906111749190611a55565b905090565b60006111836114ea565b600360006101000a81548173ffffffffffffffffffffffffffffffffffffffff021916908373ffffffffffffffffffffffffffffffffffffffff1602179055507f000000000000000000000000000000000000000000000000000000000000000073ffffffffffffffffffffffffffffffffffffffff1663095ea7b3600360009054906101000a900473ffffffffffffffffffffffffffffffffffffffff167fffffffffffffffffffffffffffffffffffffffffffffffffffffffffffffffff6040518363ffffffff1660e01b8152600401611260929190611870565b6020604051808303816000875af115801561127f573d6000803e3d6000fd5b505050506040513d601f19601f820116820180604052508101906112a391906117a9565b50600360009054906101000a900473ffffffffffffffffffffffffffffffffffffffff1673ffffffffffffffffffffffffffffffffffffffff166369328dec7f00000000000000000000000000000000000000000000000000000000000000007fffffffffffffffffffffffffffffffffffffffffffffffffffffffffffffffff306040518463ffffffff1660e01b815260040161134393929190611839565b6020604051808303816000875af1158015611362573d6000803e3d6000fd5b505050506040513d601f19601f820116820180604052508101906113869190611a55565b507f000000000000000000000000000000000000000000000000000000000000000073ffffffffffffffffffffffffffffffffffffffff166370a08231306040518263ffffffff1660e01b81526004016113e0919061165c565b602060405180830381865afa1580156113fd573d6000803e3d6000fd5b505050506040513d601f19601f820116820180604052508101906114219190611a55565b905090565b60008060009054906101000a900473ffffffffffffffffffffffffffffffffffffffff169050816000806101000a81548173ffffffffffffffffffffffffffffffffffffffff021916908373ffffffffffffffffffffffffffffffffffffffff1602179055508173ffffffffffffffffffffffffffffffffffffffff168173ffffffffffffffffffffffffffffffffffffffff167f8be0079c531659141344cd1fd0a4f28419497f9722a3daafe3b4186f6b6457e060405160405180910390a35050565b6000807f000000000000000000000000000000000000000000000000000000000000000073ffffffffffffffffffffffffffffffffffffffff1663026b1d5f6040518163ffffffff1660e01b8152600401602060405180830381865afa158015611558573d6000803e3d6000fd5b505050506040513d601f19601f8201168201806040525081019061157c9190611a97565b90508091505090565b600033905090565b600080fd5b6000819050919050565b6115a581611592565b81146115b057600080fd5b50565b6000813590506115c28161159c565b92915050565b6000806000606084860312156115e1576115e061158d565b5b60006115ef868287016115b3565b9350506020611600868287016115b3565b9250506040611611868287016115b3565b9150509250925092565b600073ffffffffffffffffffffffffffffffffffffffff82169050919050565b60006116468261161b565b9050919050565b6116568161163b565b82525050565b6000602082019050611671600083018461164d565b92915050565b61168081611592565b82525050565b600060208201905061169b6000830184611677565b92915050565b600080604083850312156116b8576116b761158d565b5b60006116c6858286016115b3565b92505060206116d7858286016115b3565b9150509250929050565b6116ea8161163b565b81146116f557600080fd5b50565b600081359050611707816116e1565b92915050565b6000602082840312156117235761172261158d565b5b6000611731848285016116f8565b91505092915050565b600060608201905061174f600083018661164d565b61175c602083018561164d565b6117696040830184611677565b949350505050565b60008115159050919050565b61178681611771565b811461179157600080fd5b50565b6000815190506117a38161177d565b92915050565b6000602082840312156117bf576117be61158d565b5b60006117cd84828501611794565b91505092915050565b7f4e487b7100000000000000000000000000000000000000000000000000000000600052601160045260246000fd5b600061181082611592565b915061181b83611592565b9250828201905080821115611833576118326117d6565b5b92915050565b600060608201905061184e600083018661164d565b61185b6020830185611677565b611868604083018461164d565b949350505050565b6000604082019050611885600083018561164d565b6118926020830184611677565b9392505050565b600082825260208201905092915050565b7f4f776e61626c653a206e6577206f776e657220697320746865207a65726f206160008201527f6464726573730000000000000000000000000000000000000000000000000000602082015250565b6000611906602683611899565b9150611911826118aa565b604082019050919050565b60006020820190508181036000830152611935816118f9565b9050919050565b7f4f776e61626c653a2063616c6c6572206973206e6f7420746865206f776e6572600082015250565b6000611972602083611899565b915061197d8261193c565b602082019050919050565b600060208201905081810360008301526119a181611965565b9050919050565b6000819050919050565b600061ffff82169050919050565b6000819050919050565b60006119e56119e06119db846119a8565b6119c0565b6119b2565b9050919050565b6119f5816119ca565b82525050565b6000608082019050611a10600083018761164d565b611a1d6020830186611677565b611a2a604083018561164d565b611a3760608301846119ec565b95945050505050565b600081519050611a4f8161159c565b92915050565b600060208284031215611a6b57611a6a61158d565b5b6000611a7984828501611a40565b91505092915050565b600081519050611a91816116e1565b92915050565b600060208284031215611aad57611aac61158d565b5b6000611abb84828501611a82565b9150509291505056fea26469706673582212209aa2110ee8b9ffe20e4c8182493240d3baba99ec07237602b97dfc06972a3aa664736f6c63430008130033",
  "linkReferences": {},
  "deployedLinkReferences": {}
}